:1000000010C02AC029C0FAC088C026C025C024C09C
:1000100010C122C021C020C01FC0A7C01DC0D6C2B1
:10002000F2C211241FBECFE5D1E0DEBFCDBF10E08C
:10003000A0E6B0E0E0EEF7E002C005900D92A23637
:10004000B107D9F720E0A2E6B0E001C01D92A439C3
:10005000B207E1F7AAD1C2C3D3CF10BE13BE80B797
:10006000806280BF80B7816080BF83B7816083BFBB
:100070000895F3DF80E38CBF83E099E20197F1F705
:1000800000C0000013BEDF98089587B3836087BB6C
:10009000C098C19A089587B38C7F87BB88B38C7F43
:1000A00088BB0895CF93DF931F92CDB7DEB7029838
:1000B000882359F08983DDDFEFE0F7E23197F1F72C
:1000C00000C0000089818150F3CF029A0F90DF9128
:1000D000CF910895D89AD898DA9ADA98DB9ADB9873
:1000E000D79ADF98B89AC098B99AC198BA9AC29824
:1000F0000895099A039A029A3798009A019A0895E6
:1001000081B5806181BD81B5877F81BD81B5806406
:1001100081BD81B5866081BD08951F920F920FB693
:100120000F9211240F900FBE0F901F90189585B756
:10013000877E806185BF85B7806285BF85B784680B
:1001400085BF85B78B7F85BF889585B78F7D85BF38
:10015000089585B7877E886085BF85B7806285BF33
:10016000889585B78F7D85BF08951F920F920FB632
:100170000F9211240F900FBE0F901F90189516BE6E
:1001800082E480BF81E083BF089513BE10BE08954E
:10019000329A339A389A369ADCDF24B185B130E04E
:1001A000382B8FEF93E0821B930B0895CF93DF934F
:1001B00000D0CDB7DEB70098379A0298E0DF89EF1C
:1001C00090E00197F1F700C00000E2DF9FE32DE02F
:1001D00083E0915020408040E1F700C00000D8DF6C
:1001E00089839A83D2DFC298029A3798009A8981CC
:1001F0009A810F900F90DF91CF9108951F920F92E7
:100200000FB60F9211248F939F938BB78F7D8BBF67
:100210001EBC8CB59DB5909369008093680081E009
:10022000809367009F918F910F900FBE0F901F904A
:1002300018951F920F920FB60F9211248F939F93D0
:100240008FEF9FEF909369008093680081E0809327
:1002500067009F918F910F900FBE0F901F90189580
:100260000398609A87B3836087BBC098C19AC09A8D
:10027000C198B89888B38C7F88BB1DBC1CBC1FBCC0
:1002800084E08EBD80B5816080BD8BB780628BBFFE
:10029000109267008091670081110BC085B7877E3F
:1002A00085BF85B7806285BF889585B78F7D85BFFF
:1002B000F1CF1EBC8BB78F7D8BBF80B58E7F80BD8D
:1002C0006098039A80916800909169000895009861
:1002D00084E886B9389A029852DF2FE986E891E0DF
:1002E000215080409040E1F700C00000C0E0D0E025
:1002F00064D18823E9F34ED1811109C0C6DE56DFEF
:10030000182F892F37D1812F35D1C5DEF1CF81301C
:1003100051F440D19FEF980F9E3F50F7682F81E036
:1003200090E03CD2E5CF823021F481E090E02AD207
:100330000AC0833019F494DFEC01DACF8430C1F6BF
:100340008D2F18D18C2F16D1D3CF81B58D7F81BD44
:1003500081B58B7F81BD81B5816281BD88E080934D
:100360006600089581B58F7D81BD81B58E7F81BD89
:1003700081B5866081BD81E080936600089570DF5D
:100380002091680030916900809160009091610037
:100390002817390710F483E085CE77DE83EC99E0E7
:1003A0000197F1F700C0000076CE94DE81E090E086
:1003B000E9D19FEF980F9E3F08F080E2C4D082E021
:1003C00090E0E8D1909361008093600080E886BD62
:1003D00082E086BD789466DE58DE83EC99E0019772
:1003E000F1F700C0000057DE9FE926E881E0915058
:1003F00020408040E1F700C0000032DF80916000C3
:1004000090916100019609F5209168003091690092
:1004100080916800909169006AE070E09FD1C90105
:10042000861B970BBC01909361008093600082E073
:1004300090E0C2D181E036DE9FE52AEE80E0915067
:1004400020408040E1F700C0000082E02BDEB5D004
:1004500081113DDFABDE5C011DB84BDE51DEC12CEE
:10046000D12CD0E004E010E0C0E0CD1728F45FDE2E
:10047000CF5F76016701F9CF6091660070E08D2F44
:1004800090E05BD1092E000CAA0BBB0B809362009D
:1004900090936300A0936400B093650087DE7C01B5
:1004A0004501881A990A11111EC0C6018E199F09AB
:1004B0008B3F9F4FC4F4CD28B1F089E0F3DD8FE688
:1004C00091E121E0815090402040E1F700C0000020
:1004D00081E0E8DD83ED90E30197F1F700C00000D3
:1004E00081E0E0DD11E09CEF89169FEF990624F48E
:1004F000013069F4D1EE09C042DFC40104960297CD
:1005000070F4023041F4D5E210E0C0E0B3CF1DDF5B
:10051000D1EE01E0FACF19DFD5E202E0F5CFC40158
:100520000296029740F4033011F4D1E0EDCF0DDFD5
:10053000D1E003E0E9CF97FCE7CF0430B1F312DF5D
:10054000D1E004E0E1CF10927E0010927F00109283
:100550006C0010926D0080939300109290008AB30B
:1005600080658ABBDC9ADE9AD69888EA8DB980EFDE
:100570008EB9089590916D009F5F9F7020916C00DF
:100580009217E1F3E92FF0E0E259FF4F8083909357
:100590006D00089590917F0080917E009817D1F3AF
:1005A00080917E008F5F8F7080937E00E0917E004F
:1005B000F0E0E058FF4F8081089520917F009091F6
:1005C0007E0081E0291301C080E008951F920F9200
:1005D0000FB60F9211248F931092920010929100F7
:1005E000D698CC9B02C0CE9BFCCFCE9902C088EFA0
:1005F00001C088EA8DB980EF8EB98F910F900FBE40
:100600000F901F9018951F920F920FB60F92112402
:100610002F933F934F935F936F937F938F939F930A
:10062000AF93BF93EF93FF938091910090919200CD
:100630008230910509F455C028F40097C9F001975C
:1006400091F16AC08430910509F454C030F10597E6
:1006500009F062C080917F008F5F8F7080937F0070
:10066000E0917F008FB1F0E0E058FF4F80834AC0F7
:100670008FB1882331F08FB18695909193008913C3
:100680000FC0E0916A00F0916B00309709F0099576
:10069000789B38C081E090E037C08FB1882319F093
:1006A00088EA8DB91CC090916D0080916C009817FC
:1006B00069F080916C008F5F8F7080936C00E09187
:1006C0006C00F0E0E259FF4F808101C08FEF8FB9DD
:1006D00082E090E09093920080939100D69A80E718
:1006E0001AC083E090E09093920080939100D69896
:1006F0001FB810C085E090E0909392008093910025
:10070000D698EDCF84E090E0909392008093910092
:100710001FB8D69A8EE78EB9FF91EF91BF91AF9136
:100720009F918F917F916F915F914F913F912F9109
:100730000F900FBE0F901F9018950024552704C0EE
:10074000080E591F880F991F009729F07695679515
:10075000B8F37105B9F7802D952F0895AA1BBB1B1F
:1007600051E107C0AA1FBB1FA617B70710F0A61BB1
:10077000B70B881F991F5A95A9F780959095BC01D2
:10078000CD010895E199FECF1FBA8EBBE09A99275B
:100790008DB30895A8E1B0E042E013C0262FE1999F
:1007A000FECF1CBA1FBA8EBB2DBB0FB6F894E29ACF
:1007B000E19A0FBE01960895F1DF272FF0CFDC01FB
:1007C000862FE82FE199FECF1FBA05C0EEBBE09A55
:1007D000E3950DB20D924150C8F70895F894FFCFFC
:0207E000FAFF1E
:00000001FF
